:20000000004A006700000030FF602F004E0036580C006635000030FF602000027F00480076
:200020004800480048002F4E001F4F0048004800480048002F4E001F4F001B008E70244E67
:20004000220020000C00006D0C00006F00000030FF6020002F004E009E58704E2F24002017
:20006000004200200002FF002F004E00285835006730FF6000200002FF0070B091670C00B0
:20008000019166200000000020004200200002FF0020002F00302F48004800480048002FC8
:2000A0004E001C4F002F4EFE584E005B48672F4800E14E00C65070244E2F240020000C003F
:2000C000006E7030000200536600000030FF602F004E0036580C006635000030FF60200067
:2000E0002F00302F20002F002F002F002F002F4E001C4F0070244E2F240020000C000067E6
:200100004A006700000030FF602F004E0036580C006635000030FF6020002F002F002F00B1
:200120002F002F4E001F4F004A6670244E4830240049872400ED4182262648002F20002FC1
:2001400000204E4F00222012662070524A66D7160048002F20002F00204E4F00222012666C
:200160002070524A66D7160048002F200030002F204E4F00222012662070524A66D7160014
:20018000972F2F4E00DD50704C1C4E2F004EFF58704E4820240049824187242648002F2037
:2001A0000030002F4E00ED4F00222012662070524A66D71600972F2F4E00DD50200042004B
:2001C0004E0098704C1C4E4820240049824187242648002F22005C203F00724E0F4E102FFA
:2001E0004E00ED4F00222012662070524A66D71600972F2F4E00DD50704C1C4E483024000A
:2002000049872400ED4182262648002F200020002F204E4F00222012662070524A66D71612
:200220000048002F200020002F00204E4F00222012662070524A66D7160048002F2000202B
:20024000002F00204E4F00222012662070524A66D7160048002F200020002F00204E4F00D6
:20026000222012662070524A66D71600972F2F4E00DD50704C1C4E48002400498226200032
:200280003048556200D030004E000000002000E1221266602000E1221266602000E12212B6
:2002A000662070524A66D71600972F2F4E00DD50704C1C4E2F2F22004982262000E122121D
:2002C000662070524A66D71600972F2F4E00DD507026284E2F2F22004982262000E1221217
:2002E000662070524A66D71600972F2F4E00DD507026284E4830240049872400ED41822637
:200300002648002F200020002F204E4F00222012662070524A66D7160048002F2000200024
:200320002F00204E4F00222012662070524A66D7160048002F200020002F00204E4F0022D3
:200340002012662070524A66D7160048002F200020002F00204E4F00222012662070524AFD
:2003600066D71600972F2F4E00DD50704C1C4E4820240049824187242648002F2000300064
:200380002F4E00ED4F00222012662070524A66D71600972F2F4E00DD50704C1C4E2F2F2255
:2003A000004982262000E12212662070524A66D71600972F2F4E00DD507026284E4800244A
:2003C0000049822648004800E148814E1C4F004A6620007D2212666020007D22126620702B
:2003E000524A66D720007D22126620007D70524A66D71600972F2F4E00DD50704C1C4E4813
:2004000030240049872400ED4182262648002F20002F00204E4F00222012662070524A66C9
:20042000D7160048002F20002F00204E4F00222012662070524A66D7160048002F20002F4D
:2004400000204E4F00222012662070524A66D7160048002F20002F00204E4F002220126669
:200460002070524A66D71600972F2F4E00DD50704C1C4E4EFF2F2F240026002000703000B2
:20048000020053660000006001027F0020004A006670600130000200672000430041FF20C2
:2004A00020202200410043002020200041002220202000430020224100202041FF2020208D
:2004C00000430020224100202041FF20203000020067410043FF4E142F2F20004E142022F6
:2004E0004E0E4E102700410043FF4E142F2F20004E1420224E0E60410043FF4E144E1027EE
:2005000000410043FF4E144E102700410043FF4E142F2F20004E1420224E0E4E1027004148
:200520000043FF4E142F2F20004E1420224E0E4E1027002F004E002858350067FE30FF242A
:20054000264E4E2F240020007030000200536600000030FF60200031000020004A00662F2C
:20056000004E0028583500667060200070300002804A672F4E000A602F4EFD58244E4EFFD7
:200580002F2F24002600200070300002005366000000600100800020004A00667060013086
:2005A000000200672000430041FF20202022004100430020202000410022202020004300C3
:2005C000202241FF20204E10270020004300202241FF20204E10270043FF202241004E0E09
:2005E00043FF202241004E0E410043FF4E144E102700410043FF4E144E10270043002F2074
:200600004E142F2F43FF41004E1420224E0E4E10222243002F204E142F2F43FF41004E14BE
:2006200020224E0E4E1022222000D1002000D1002F4E002858350067FE30FF24264E4E2FBD
:20064000240020007030000200536600000030FF602000420020004A00662F004E0028583D
:200660003500667060200070300002804A672F4EFE602F4EFB58244E2F240020000C000080
:200680006F00000060002F004E0036580C0066350000600020004A006620003000020066F1
:2006A000200070B000660020003000020066200070B00066200000000020000000002000D6
:2006C0003000020067200002FF0060200002FF0020000200002000300002006620000000E5
:2006E000002F4E001558706020004A00674A006735000030FF244E48382400478D4987415F
:20070000872420000C00006F00000030FF6000200200006735000035000070C067007028E2
:20072000600020004A00664A006670286020002800288E2B87202B87000000602088D187FF
:2007400024703088D08820204800D42F4E00EA50360C0066420060350000430030E1328756
:2007600000420020534A6E248720208702FFFF2B8E704C1C4E220020000C00006F000000FE
:2007800030FF6020002F004E009F58704E2F240020000C0000674A006700000030FF602F23
:2007A000004E0036580C006635000030FF6020002F002F002F002F002F4E001F4F007024CC
:2007C0004E220020000C00006700000030FF6020002F004E009E58704E4EFF2F2F24004126
:2007E0008C2620004A006700000030FF600020914E142F2F204000722220224E0F41FF2083
:200800002020002000200090004E142F2F2000430041004E0F20224E144E102000210020A4
:2008200000220021000020002000200090004E142F2F2000430041004E0F20224E144E10C2
:2008400020002100200022002100002F4E0024587024264E4E220020000C000067000000F0
:2008600030FF6020004A006648006020002F004E009F58704E2F240020000C00006F000031
:200880000030FF602000430020224E102F4E009E5870244E220020000C00006F0000003084
:2008A000FF6020004A00663F00603F004E003754704E4EFF2F24002000430041FF202020F1
:2008C000220041004300202020004100222020244E4E48382400240026002600E42800E7A8
:2008E000418D282000302000210020005C20E70600E622202020E5D0E52220D0D3D300E648
:2009000020003100200070210020002100200021002000210020002100200021002000412F
:2009200000203F004220004100203F004220002100200021002000210020002100200021CF
:200940000020002100200021002000210020002100200021002000410072202020004100DE
:2009600020202000210020002100200021002000210020003100002000310000200042002F
:2009800020004100203F0042200031000020003100002000420020004200200042004A8DB6
:2009A000660020E5D0E92220E7D320D300E6200020002020D100E6204E1443814E0E4E1007
:2009C0002000200021002BFFB08D702B8D2B004F8D48004800E748814E1C4F004A66202037
:2009E00000776020200050438120224E1006000120D120002000208D20002000218D002039
:200A0000002000218D00200020002220908B21002000200020200020002100002000200049
:200A20002100002000200021000020E5D0EB22E9D0200020002008200020002108002000A8
:200A4000200021080020002000210800200042002F2F48004800480048002F4E001C4F001C
:200A600048004800480048002F4E001F4F002F4E001B5848004800480048002F4E001F4F70
:200A80000022002000200090002B8D4E1422005C4E14438D20202020224E102B91704C1C06
:200AA0004E4EFF2F2F240026001E220020002000B06720002000904E142F2F20002000206C
:200AC0000020002000904E1420224E0F20004100202020000000006020003000484E14200A
:200AE0000041002020200002FF00220020002000B000672000200090004E142F2F2000200B
:200B00000020002000200090004E1420224E0F20004100202020000000006020003000482B
:200B20004E14200041002020200002FF0020003000020067430041004E0F2F2F4E502000DB
:200B4000410020206020004100200000208000200030000200672000204E14200043004E87
:200B6000142F2F20002000204E1420224E154E10200021002000200020004E1420004300D8
:200B80004E142F2F2000200020004E1420224E154E1060200070210020002100200030002E
:200BA0000200670C0000670C000066200043002022080041006020004300202208004100AB
:200BC00020202F4E00185820914E142F2F7022C8002020224E0F41FF2020200020004E143C
:200BE00043FF4E0F2F2F20002000204E1420224E0E2F2F2000430041004E0F43FF4E142F66
:200C00002F4E5020224E144E1020002100200020004E1443FF4E0F2F2F2000200020004E77
:200C20001420224E0E2F2F2000430041004E0F43FF4E142F2F4E5020224E144E10200021C0
:200C40000024264E4E482024004791418BB56602200043007022A0004E1422005C4E142F5B
:200C60002F20914E1422207022C8004E0F20224E14200041002020200043007022A0004E11
:200C80001422005C4E142F2F20914E1422207022C8004E0F20224E14200041002020200091
:200CA0000C00006631FF0060200031000020000C00006631FF00602000310000200020002E
:200CC000310070B0670C0000662000430020220800410020200C0000670C00016620004373
:200CE0000020220800410020202091526670B0670C00016620004300202208004100202098
:200D00002000300048443100602000430020220800410020202000300048443100200030DB
:200D20000002006602FF002000300002006770B0670C000166200043002022080041002089
:200D40002020004300202208004100202070B0670C0001662000300002006702FF00602011
:200D600000000000200024002100002000210070B0670C000066200043002044220C0000DF
:200D8000670C000166200043002044222091526670B0670C00016620004300602000430007
:200DA000204422200030000200670070B0670C000166200043002044222000430020442228
:200DC00060200043007022A0004E1422005C4E14200041002020200043007022A0004E1444
:200DE00022005C4E142000410020204C0C4E2F2F240047812000702100200021002000412F
:200E000000224E144E102000210020004100224E144E10200021002000200020004E142247
:200E20004E0E200043004E144E10200021002000220021002000220021000024264E483F0D
:200E400024002A002800240026002600E12800152000020000BA006F2000000000200031D2
:200E6000FF00602000310000B8006F2000000000200031FF0060200031000020004A0066AA
:200E80000120003000020067004A6622E5D2EB2220E9D320D300E320002022D300E3200018
:200EA0002000210022D300E320002000210022E9D3D300E3200020002100600120E5D0EBA2
:200EC00022E9D02000200020082000200021080020002000210800D32000200021980060D1
:200EE0000120E5D0EB22E9D02000200020082000200021080020002000210800D320002009
:200F000000219800600120000C000066220020002E009E2C009C00200020D0B0006EB00071
:200F20006D20D0B0006EB06C20003100006000200020002020002000210020002000DA216D
:200F40000020002000D821006020000C0000662E009E2C009C20000C0000662000DCBC0088
:200F60006E20004A0066DE2000BE006EFF20002000202000200021002000200021000020C8
:200F80000020002100002F4E58704C1C4E22002000200020002000200021000020002000F2
:200FA000210000200020002100002F4EF5584E4EFF483E24002A002800260024004191260C
:200FC00020914E142F2F7022C8002020224E0F41FF202020004A0066220020002200202291
:200FE0000020002200210000220020002200210000220020002200210000600170B0670C90
:201000000000662C442A26440C0000670C0001662C442824442091526670B0670C0001661D
:201020002C44282444602C442A2644204E1443FF4E0F4E102A204E1443FF4E0F4E102820DC
:201040004E1443FF4E0F4E1024204E1443FF4E0F4E102622002000D800D400DAD620004A60
:201060006ABA6C220020002200206020002000BA6D2000200020220020004A006AB8006C1B
:201080002200200022002100006020002000B8006D200020002100220020004A006AB600F9
:2010A0006C2200200022002100006020002000B6006E200020002100220020004A006AB470
:2010C000006C2200200022002100006020002000B4006E20002000210020000000002200BA
:2010E0002000202000904E1443FF4E144E1020002100220020002000200090004E1443FFA5
:201100004E144E10200021002200200020002000904E1443FF4E144E1020002100220020D5
:20112000002000200090004E1443FF4E144E10200021002000430041004E0F43FF4E142F66
:201140002F4E1E5041FF202020002000204E1443FF4E144E10200021002000200020004E71
:201160001443FF4E144E10200021002000430041004E0F43FF4E142F2F4E1E5041FF2020D9
:201180002000200020004E1443FF4E144E10200021002000200020004E1443FF4E144E1086
:2011A00020002100704C0C4E4E2F2400220020002000B067012000B0006701200020200025
:2011C000904E14200043004E0F2F2F20002000204E1420224E0E20002000202022002000DD
:2011E0002000200090004E14200043004E0F2F2F2000200020004E1420224E0E20002000FF
:20120000502020220020002000200090004E14200043004E0F2F2F2000200020004E1420CA
:20122000224E0E2000200041002020220020002000200090004E14200043004E0F2F2F20BD
:2012400000200020004E1420224E0E2000200041002020244E48202400478B499124702827
:20126000220020002000D10020007021002000210020002100200020002020002100200047
:20128000210020002100200022002100002000420020002F00302F48004800480048002F2A
:2012A0004EF74F0048004800480048002F4EF94F002000304822E5D0E9222000E720D1D172
:2012C00000E62200220020D020002000202000304822E5D0E9222000E720D1D100E6220049
:2012E00022002000D020002000210020002200210000200020002000210020002100200036
:201300002100200002FF00200022002100200022002100002000420028480048004800481B
:20132000002F4EF94F002F4EEE58704C1C4E2F74308E0200662F004E003658346634FF302E
:20134000244E4EFF483828002600260024002800287420D0002DFF20D0002DFF2000B000EA
:201360006F20422000B0FF6D0148FF2F002F2F48FF48FF204E4F0060012000B0006F20423E
:2013800020FFB0006D0148002F002F2F48FF48FF204E4F0060012000B0006F20422000B01E
:2013A000FF6D0148FF2F002F2F48FF48FF204E4F0060012000B0006F204220FFB0006D0063
:2013C00048002F002F2F48FF48FF204E4F00600020FFB0006F2000B0006D0048002F00603B
:2013E0002000B0FF6F2000B0006D0048FF2F002F2F48FF48FF204E4F00341120FFB0006FD0
:201400002000B0006D48002F002F2F48FF48FF204E4F003411602000B0FF6F2000B0006D4F
:2014200048FF2F002F2F48FF48FF204E4F003411602042304C1C4E4E483826002400200068
:201440002898200026962400944A67204E142F2F204E1420224E142F2F204E1420224E0F02
:201460004E1024D400262000D000200020D62000204C0C4E48382400419043902600960000
:20148000240094004A00674A664A670C0000662000B00067703088D000B000662B008F1001
:2014A0000048482B8E100048482B8E2500002500003B008F3B008F420042002F2F4E12501A
:2014C000382F3F2F2F4E00294F004C044E4EFF483C2A0028002400763D00FF2DFF2DFF2F24
:2014E00048FF48FF48FF4E00264F00340C1166150000600C11661500002F3F003FFF2FFFB6
:201500002FFF4E00354F008620FFD10020FFD1009AFF98FF4A664A674A6B30020067FF3057
:201520004C044E4E4EFF483F2A0028002400260052418E283D00FF42FFDAD88E2F4E1E5856
:20154000262F4E1E58247E1E7C1CE0E00C00006E0C0000664A6B06FFFF520C00006E0C00DD
:2015600000664A6B06FFFF524A6A444A6A444A664A67002B8F2B8F0C007F6C0C007F6C4AFD
:201580006A444A6A442F3F003F2060004A6A2A44602A4A6A284460286070C0675270C06744
:2015A00052E2E2E1FF0C007F6E0C007F6E4A6A444A6A4470C0001DFF020000609A984A66C3
:2015C0004A6610FF81002F3F003F3F4E4F0081FF15000053FF0C00FF6E10FF81002F3F00E4
:2015E0003F203F4E4F0081FF282B8E30FF4C1C4E4E4E004820240047904990744A00670C61
:201600000000662000B00067703088D000B000662B008F100048482B8E100048482B8E258E
:2016200000002500003B008F3B008F42002000910020009100420043002022702280004E26
:201640000F4A672F41002F002F002F002F4E002E602F41002F002F002F002F4E00324F00C7
:20166000804C1C4E4E4E004820240047904990744A00670C0000662000B00067703088D096
:2016800000B000662B008F100048482B8E100048482B8E2500002500003B008F3B008F42A8
:2016A00000420043002022702280004E0F4A672F41002F002F002F002F4E002E602F4100CB
:2016C0002F002F002F002F4E00324F00804C1C4E4E4EFF4838260024004790419028744A56
:2016E00000670C0000662000B00067703088D000B000662B008F100048482B8E1000484819
:201700002B8E2500002500003B008F3B008F420042003800702DFF2DFF2D0100FF2D00FF55
:2017200042002F3F0220442F48004E00294F0084300200660035FF001500004300202270FC
:201740002280004E0F4A672F41FF2F002F002F002F4E002E602F41FF2F002F002F002F4E59
:2017600000324F00843002006642002F3F002F48004E00294F00843500304C1C4E4E4EFFA5
:20178000483F2400260012280029764A006B7060703DFF2000442DFF2000442DFF2F20FF00
:2017A0004E1443004E0F4E102F4E00375041FF20202DFFFF20FF4E1443004E144E102DFF6A
:2017C00024FF4AFF662F3F0048004800600230000201674A006720004E142F2F20FF4E142B
:2017E0002F2F4E00384F004E102D0020D0002DFF4A0067014A00670C0028FF6C2FFF4E0091
:2018000037602F004E1E582DFF0CFFFF66442DFFD4FF02FFC00C00FF6600B4FF6C002F4E91
:2018200013582F2F2FFF4E4F002A2F4E13582F2F2FFF4E4F00282E9EFF2C9CFF2F2F2F4E44
:2018400012503F2F2F4E4F00866601150000602F4E13582F2F2FFF4E4F002A2F4E13582F38
:201860002F2FFF4E4F00282E9EFF2C9CFF2F2F2F4E12503F2F2F4E4F008666012DFF2DFFF8
:20188000D4FFB4FF6D6000B4FF6F002F4E13582F2F2FFF4E4F002A2F4E13582F2F2FFF4ED6
:2018A0004F00282E9EFF2C9CFF2F2F2F4E12503F2F2F4E4F00866600150000602F4E13585F
:2018C0002F2F2FFF4E4F002A2F4E13582F2F2FFF4E4F00282E9EFF2C9CFF2F2F2F4E1250AD
:2018E0003F2F2F4E4F0086662DFF2DFFD4FFB4FF6E2FFF4E13582F2F2FFF4E4F002A2FFF0E
:201900004E13582F2F2FFF4E4F00289AFF98FF2F2F2F4E12503F2F2F4E4F0086304C1C4EAA
:201920004E4EFF483F2400260012280029784A006B7060703DFF2000442DFF2000442DFF0F
:201940002F2FFF4E00375041FF20202EFF26FF4A662F3F0048004800600330000201674A8E
:20196000006720004E142F2F204E142F2F4E00384F004E102D0020D0002DFF4A0067024AC7
:2019800000670C00286C2F4E0037602F004E1E582DFF72E23DFF20E23406010CFFFF6606CA
:2019A0000220FF442DFF30FF48443DFF30FF48E2D40C056D06FAD6FF02FFC00C00FF6600ED
:2019C000B6FF6C2F4E13582F2F2F4E4F002C2F4E13582F2F2F4E4F002A2F3F2091FF2F20FF
:2019E00091FF2F4E4F008866011500002DFF2DFFD4FF0C056D06FAD6FF3F003F004E004DF0
:201A000058602F4E13582F2F2F4E4F002C2F4E13582F2F2F4E4F002A2F3F2091FF2F209196
:201A2000FF2F4E4F008866012DFF2DFFD4FF0C056D06FAD6FFB6FF6D6000B6FF6F2F4E1338
:201A4000582F2F2F4E4F002C2F4E13582F2F2F4E4F002A2F3F2091FF2F2091FF2F4E4F00D3
:201A60008866001500002DFF2DFFD4FF6A0605D6FF3F003F004E004D58602F4E13582F2FD7
:201A80002F4E4F002C2F4E13582F2F2F4E4F002A2F3F2091FF2F2091FF2F4E4F008866005B
:201AA0002DFF2DFFD4FF6A0605D6FFB6FF6E3F003F004E004D582FFF4E13582F2F2F4E4F0C
:201AC000002C2FFF4E13582F2F2F4E4F002A9CFF9AFF2F2F4E1250342F3F2F2F4E4F008838
:201AE000304C1C4E4E4EFF483F2C002A0036002400478E498E418F282E002A744A66204AA4
:201B0000673F003F004E004D58843002006600308E020066DDDB602D00FF4A664A671500F1
:201B2000002F2F4E12503DFF2F3FFF2F2F204E4F008470262825FF00204A663F3F004E00D1
:201B40004D5884300200662F3F002F2F204E4F00842030304C1C4E4E483C2400478E498EDF
:201B6000784A664A67002000B0006F2696D600602000B0006F269600D660262000B0006FC5
:201B80002494D400602000B0006F249400D460242F2F4E12503A1500002F3F2F2F4E002A69
:201BA0004F0088300200669795300200664E005788304C1C4E2000B100086C20000060B169
:201BC00000286C20000060B100CA6C20000060B1000B6C20008060B100FC6C20000060B118
:201BE000007A6C200080602000004E4A006700008E6002FF8E704E4EFF483F2E0024001E61
:201C0000762F004E582C2F4E582A20D066702DFF2DFF6000BA6F4A6F2400004A006F60248D
:201C200001004A006A36FF204E1441FF202020604A006A2400004A6F604A6F746024010095
:201C400036FF204E1441FF2020204E1443FF20202041FF4E0F2F2F4E1150284A6A44D42D5E
:201C6000FF2F4E135843FF4E0F4E102F4E582DFF43FF20224C044E4E4EFF2F430041894E38
:201C80001443894E0F702280004E0F43004E1541FF2020430041FF4E1543004E14702280D5
:201CA000004E142F2F4E1E502F2F43007022C9DA4E1420224E0F43FF20202020224E10246B
:201CC0004E1443FF4E152000FF2286BD4E0F4A6F5270C06752204E142F2F7022B4002020C2
:201CE000224E0F702280004E14244E4E481C380036002200004981720CFF664A6B3048D192
:201D00008F603048918F603BFF8F0C026C1A020020804A6A3031000031FF003048443100AB
:201D200050B100D763604A6F30310000310000310050B100D7632000C8522B8010020081D9
:201D4000304C104E2F2200764A8F66328F604A00660C016D4A0067308F48D0209060308F01
:201D600048D0209032083300330030264E48342400498F7AB58F663400948F0C026F06FAE7
:201D8000600CFD6E060535003500420042006000340026004A6B3048603048443000418877
:201DA000B16F30D0226676604A6B30C12020E2D16030C12020E291224E0C3637003090352A
:201DC0000042006042004A6B30486030484420B06C36004A6A304844363500370030909002
:201DE000203500604200420035003B008F304C1C4E483C260045802034780C00670C0067A4
:201E00000CFF66010C00816E0CFF6620300020310400500C00D763012400C860010C0081CE
:201E200066010C0067203000200C0066203A002600E1702B900C0066D700600C00669700A8
:201E4000600C0066D7006097002030FF200C00663B0081203B008120300020310400500C68
:201E600000D7632400C82B003C902B003C9027000027000020004E1443004E1443004E0F39
:201E80002F2F2000204E1420224E154E10270020004E1443004E1443004E0F2F2F200020B3
:201EA000004E1420224E154E102700603880304C0C4E481E2200478E498E26000041802865
:201EC0002000B0006F230000230000602000B0006F2300002300007026282000B0006F2378
:201EE0000000230000602000B0006F2300002300007026283CFF30004853576200D030005D
:201F00004E00000000002000900060200090006020009000602000900022E0208FB08F663D
:201F20000C00816E201A020020203020203100002020210052811002002081702B902B90BC
:201F40004C184E481E7C22002600B38F6672604A006B3000486030004844E23ABA8F6E48C7
:201F6000D020903008B0006F3000603048D020903008483260724A8F670C016F377F0060AC
:201F8000373F003800B86F30603048322200B38F672000B8006F300060304836B26F30D0C1
:201FA000B06F30486030D020326030D0B06F30486030D02036200031003300304C084E2FA6
:201FC000220076603000D022B08F6F308F22220020B0006C3300B38F6630264E4EFF483FA7
:201FE000280042FF0C016C034A006703B98F6703B98F6703300048E1120048489020001227
:20200000004848D02DFF300048E11200484890200012004848D02DFF262430206A52E2288B
:202020002A2600006026004A006A3000484460300048340C016F48603048D020003F7232DF
:202040000830209020B08F6C30D8B78F67B86DB66F002660002400B9006620004A006A3001
:202060000048446020003000483420000C016F486020003048D020003F72320830209020F1
:20208000B08F6020004A006A30004844602000300048B08F6C30DAB58F67BA6DFFB66F2648
:2020A0002430206A52E2282A6000240030DA3E0048E1120048489E200012004848DE3C00AB
:2020C00048E1120048489C12004848DCBA6F2091D022204E0D32204E0C2E2091D022204EE9
:2020E0000D32204E0C2CDFFFDDFFB58F67BA6DFF2630206A52E2286000260030D83E004820
:20210000E1120048489E3C0048E1120048489CB78F67200010004848DE10004848DC60DEF6
:202120008FDC8FB86F2091D022204E0D32204E0C2E2091D022204E0D32204E0C2CDFFFDDD5
:20214000FFB78F67B86DFF2FFF2FFF4E12503DFF3494000C026D06FA600CFD6E06054A6A8E
:202160003048446030483248D220003F2272329820B06C4A6B20003F3498603248D22000DA
:202180003F703018443430D0003DFF0C056D06FAFF604AFF6A0605FF39FF004200B98F67D1
:2021A0002000340094000C026D06FA600CFD6E0605390030FF4C1C4E4E4EFF483F4590497C
:2021C0008F4190242A0000418F2C418F2E201DFF020038013BFF8F204A00670C00006602D2
:2021E0006002368F268F42FF3D8FFF60966A76260052FF4A6E1000020067B766B767012B12
:202200008F8F702B8F2F4E0067583BFF8F428F10FF02002081204200420042420042007014
:202220002B8E2B8E2B8E2B8E2D00FF20FF0200FF247010FF35002500002500001500001522
:20224000000070100072C035000C000066350000600C00006635FF00600C00006635FF00E4
:2022600020202026003D00FF60260052FF100002006720B76620B76700282636602600D6F1
:202280006A367FB767B6006DB76700222021000020310000210000210000110000110000A8
:2022A000310000210030FF90FF90FF20203100310000202D00FF20FF0200FF247010FF3599
:2022C00000202500002025000020150000201500002070100072C035000C0000663500005C
:2022E000600C00006635FF00600C00006635FF002028428F380010FF02002081304C1C4EE9
:202300004E483E24007AB58F672000700C00005E444A6B700C00005E602000300048447225
:202320002070B25D444A67302200D028340094006A304844340C006F0060000C008F67B50B
:202340008F6720004A006B3000486020003000484472B06F302200D028340094006A304879
:2023600044340C006F604A006B30004860300048442270B06D20002030D02200D028202276
:20238000340094006A3048443460744A670C026F410590203420E99032204E0C2C20B08F1F
:2023A0006D308F48D02090360860DC20903668B6006F30006030483500304C044E483F3A70
:2023C000003400458F26003928005A2C00C62E00E7784A6F4A673F3F003FFF4E5C3F3F0047
:2023E0003FFF60014A6A003F3F003FFF4E5C0C00D4006F36004E3867302F2F204E5038D658
:202400000C056D06FA604A6A06053494000C026D06FA600CFD6E604A6F0C04006C3000D070
:20242000B100046F0C0001006F36004E3867302F2F204E5038D60C056D06FA604A6A0605E2
:202440003494000C026C0CFD6E06054A67003F3F0060004A6F4A660C04006C3000D0B10093
:20246000046F0C0001006F36004E3867302F2F204E5038D60C056D06FA604A6A060534948B
:20248000000C026D06FA600CFD6E06054A674A67FF3F3F003FFF4E5CDBD5000C05006D06E4
:2024A000FA00604A006A060500304C1C4E4EFF483F240041802E42FF4A8F66024780498F15
:2024C0002700100002006726000200FF24948E6AD488D5882B8E4A00674A00664A006B30CD
:2024E0000048603000484420B06D3F00308F48443F603F003F004E00475881FF7212003073
:20250000908F20673F00928F3F4E00475881FF368F37000037000037002F4E005C5881FFEE
:202520004A00677027004A006701603BFF8F0C02816C20203000202031000020500C00D749
:20254000632000C852816001340036006A304844383A4A6A9A60DA7C60383A4A6A9A7C60FA
:20256000DA7C4A673048D18F2D00FF4A6643FF3241FF4E0C0C0001FF6F3701006020FF3729
:20258000004A664A667027006037007027003200C320009027006A702700604A66702700A2
:2025A00070270037006070270037004A670C01006C0C006E702700D700603200C320009008
:2025C00027006A70270006FF004E005F1000020067603BFF8F0C02816C20203000202021B3
:2025E00000030020500C00D7632000C8528110000200673F00308F48443F4E00475881FFB8
:2026000030FF4C1C4E4E40000720800C006700300050B100D7632400C830003BFF8F467027
:202620004E2F2F4580742F004E0036588420800C00660C008166428F428F428F428F702B42
:202640008E2B8E2480500C00D7632400C83024244E4820458F26004D498F743000B0006705
:202660003F003F004E58843000B000673F003F004E58843000B000673F003F004E588430A4
:202680008FB08F673F8F3F004E58843000B000673F003F004E58843000B000673F003F001A
:2026A0004E588430B0673F3F004E5884428E304C1C4E2F74604A8E674E004384300201675A
:2026C00002FE0C00816E208FB08F673002006730244E483F38003600458F478F2800574110
:2026E000902A2C0000740C0066004A66201E02004A8F674A8F6700008F60208F20000000E0
:202700000010020020814E8430020067600210020020813F003048443F4E00475884420099
:2027200060014E84300200660135000060010C00670C00670C0066014E8430020066010C67
:2027400000664EFE8430020066014A663F003048443F4E004758844E005B3E673437006036
:20276000010C00663660010C0066014EFE84300200660137000C00663B038F3B00813B0303
:202780008F3B008F3B048F3B008F2B0049902B0062902B0062902B0042902B0059900C37B6
:2027A00000662020007A60202000492B00499060003B018F3B00813B018F3B008F3B048FC2
:2027C0003B008F2B0067902B0079902B0078902B0063902B006F900C3700662020007A609B
:2027E000202000672B006790600C00663700600C00663700600C006635004A00673000B066
:2028000000674E843500600C00663700600C00663700304C1C4E481F2A00458041812628EC
:2028200000C82800D72C00000C026C201E0200200C356622005060200C376622007760721E
:202840002030002070210052200C006620260020317D0020300050B864240C026C2030FFD6
:20286000202100790052200C006620260020317D0020300050B864244A660C0075632030E2
:2028800037220077602030352200500C0001642030FF20310000202100010052200C0066DA
:2028A00020317D0020300050B864242030FF20210052200C006620317D0020300050B8646C
:2028C000242030FF2031FF0020210052200C0066202600B6652030FF2031000020D181435A
:2028E000FD202100200C00662600022030FF200C0066203B0081203B008120317D00203029
:202900000050B8642410020020812B003C902B003C90204C1C4E4EFF48373E003C003A0030
:20292000280042FF478F346A30484434366A30484436B66F32363432D20C006E004A670246
:202940004A663700370036370037003700378F00270000270000270000208E1700208E17B9
:2029600000170000100081000C00006600000060020CFF006600000060020CFF0066026035
:2029800002DF00DD0034006A3048443436006A30484436B66F3236343700363700308F81B4
:2029A0000060024A6701248F343500003500003500002500002500002500001500001500E4
:2029C000001500001500003000B00067004A0066300091000C02006D06FA00600CFD006EC3
:2029E0000605003000206A52E2D1000C05006D06FA00604A006A06050060300048E1201087
:202A000000484891D18E2F300048E1201000484891D18E2F4E125037003500003500002B53
:202A20008E8F2B8E8F4E005581FF4230FF020066010C006F00248F343500350035003500FE
:202A4000250000250000250000208E1500208E1500150000100081000C0000660000006009
:202A60000CFF0066000000600CFF0066000000308F1500358F002B8F8F2B8F8F4E005581C6
:202A8000FF603700370036370037003700378F00270000270000270000208E1700208E17C9
:202AA00000170000100081000C000067FD0CFF0067FD0CFF0066000000308F170030FF4CCD
:202AC0001C4E4E4EFF483F418F26418F2C74248F260028002052528F308E53B08F67328E39
:202AE0005920B26C2042600C008F6E2030FF420042002F4E003A5884200C006630B0006F2D
:202B0000300060304835006001200C0067010C006D262800388F704A8F5744882F4E003FCD
:202B200058844A662F4E003A5884200C006F002F4E004658844A662F4E005D58842F4E0059
:202B40003E5884200C006F002F004E003F5884203E4A664A006B300048603000484420B001
:202B60008F6D20000000007E2030FF4A6642FF7A26006030D1FF5226003000B0FF6F20BADB
:202B80006D2B008F20303B008F2F8F4E006758842B008F4A8E674E00433DFF0C01678430B7
:202BA0004C1C4E4E4EFF483F498F28005D418F2A2E003A744A90670C00906602340060022F
:202BC000478F4A6701243435000035000035000025000025000025000015000015000015C8
:202BE00000001500003000B00067004A0066300091000C02006D06FA00600CFD006E0605AB
:202C0000003000206A52E2D1000C05006D06FA00604A006A06050060300048E12010004827
:202C20004891D18E2F300048E1201000484891D18E2F4E125037003500003500002B8E8F5C
:202C40002B8E8F4E0055844200420042420042003002006601204A6701202400282600427C
:202C6000004200368F704A8F574486200C006D2F4E003F58844A662F204E58842F00204EEC
:202C800058842F004E004658842F004E003E588420002F004E003F5884200C006D002F4E54
:202CA000003F58844A662F204E58842F204E58842F204E58842F4E004658842F4E00465824
:202CC000843000B0006F3000603000483CBC6D304837002F4E003E58842F004E003F604A08
:202CE000662F204E58842F204E58842F4E003E5884300200663B008F2028002B8F20422FF0
:202D00004E006758844A8E67300200664E00433DFF0C0167843BFF8F304C1C4E4E2F2F36F5
:202D2000003200418F780C006630E53100600C00663100600C00663B8F600C00663100605F
:202D40000C00663100600C006630E530600C006631003BFF8E3026284E43807260200C1C45
:202D6000006F2030003200200C0066304E48304580478F280000740C00816E16020020313F
:202D80000000204200203100002030FF52814EFF84203B009020310300203000200C00666C
:202DA000500C00D7632400C8100200813000D0903B90370400702700304C1C4E72208FB01A
:202DC0008F664EFF3B048F4E2F2F4580740C02816C203100002042002030004EFE84203BD5
:202DE000008F203100002031FF0020318F002030FF3024244E2F744A9067208FB08F660C6A
:202E000000816E604A8F664EFF8430244E48202400479020004A00673000D0D00043004E1C
:202E20000C34B4006CB46C34B4006C3400350030009035006A340042003000900035006A21
:202E40003500004200300090009000203500605300E000430030D000326A3500004200422B
:202E6000003000D0003460430030D000326A3500004200420030D000350060300090009041
:202E80000020350030D00035004A006B300048D02090350800300048E52020083248E5902A
:202EA00018250025003000C1002500D1004A006F300048E5202508004A006F300048E52030
:202EC000200891002000D10060702500704C0C4E4EFF483F42FF24002600380036003CB57F
:202EE0008F67B58F6630206A52E23C667C4A6B304860304844204A6B30486030484424D47C
:202F00004A6F4A6E4A6A4A6B4A6620004A006F4A6E20004A006A4A6B4A664A6F4A006E4AA2
:202F20006A720C00005D44704A6670226772704A66704A67703E67B58F67B58F674A006621
:202F40004A00664A006B300048603000484432D320004A006B30004860200030004844D317
:202F600072B36D2A0001602A00013048224E0D4A30D032204E0C20B08F6CD020903D08FF8F
:202F80003000B0FF6F0035FF0060004200209030C14301204E0C944A6F004A6BB86D9500F2
:202FA000D50060D9004200944A6FB66F9500D500604A6A30484420B06FD500950060304894
:202FC0004420B06DD500950060D9004200D44A6FB66E604A6A30484420B06E4200D7003083
:202FE000FF4C0C4E4E48FF208124802800D732006B0167010C003C00E86723003C00E80C63
:2030000002816D3BFF8F6034FF5424003C5281B96A2400C83C006B0067000C003C00E86729
:2030200023003C00E80C02816D3BFF8F6034FF5424003C5281B96A2400C8BC6A004302C32D
:203040006002430260024302C360020C003C00E86723003C00E80C02816D3BFF8F6034FFC7
:203060005424003C5281B96A2400C844BC6A004303C36001430360013C006B0067000C0025
:203080003C00E86723003C00E80C02816D3BFF8F6034FF5424003C5281B96A2400C843022B
:2030A000600124802090368F48E3D14238813A8160040C003C00E86723003C00E80C028113
:2030C0006D3BFF8F6034FF5424003C5281B96A2400C844430260010C003C00E86723003CB1
:2030E00000E80C02816D3BFF8F6034FF5424003C5281B96A2400C8443C006B0067000C009C
:203100003C00E86723003C00E80C02816D3BFF8F6034FF5424003C5281B96A2400C8BC6AC9
:20312000004301C36000430160004301C360000C003C00E86723003C00E80C02816D3BFF09
:203140008F6034FF5424003C5281B96A2400C844BC6A004301C3600043013C3EE220903660
:203160008F48E3D1544224806B47013080510055368147013080510047013080536047028D
:2031800030805100553681470230805100470230805322000038813A814E786058B86E4E04
:2031A00078607A6058B86E9E6ADE58BA6E4E7A60786058BA6E9E6ADE58B86E4E7A6058BA5B
:2031C0006E4E38607A60596B9E6ADE58BA6E4E7A60386058BA6E9E6ADE596B4E3860596B03
:2031E0004E38603A60596B9E6ADE596B4E3A603860596B9E6ADE596B4E3A60596B4E3800C1
:20320000603A6058B86E9E6ADE596B4E3A607860596B9E6ADE58B86E4E365100553681477C
:20322000003080510047003080510060010C02816D3BFF8F4A8F67703B803B8074604234AF
:2032400034345281B96A2400C851004700308051006001360C02816D3BFF8F4A8F67703B44
:20326000803B807460423434345281B96A2400C8510060010C02816D3BFF8F4A8F67703B1D
:20328000803B807460423434345281B96A2400C8946A014E0160013651005536810C02818E
:2032A0006D3BFF8F4A8F67703B803B807460423434345281B96A2400C8470030805100478F
:2032C000003080510060000C02816D3BFF8F4A8F67703B803B807460423434345281B96AFA
:2032E0002400C8510047003080510060360C02816D3BFF8F4A8F67703B803B80746042347E
:2033000034345281B96A2400C85100600C02816D3BFF8F4A8F67703B803B80746042343449
:20332000345281B96A2400C84E209090E23B8F4A6B4A806B20813000D1814E003B813B816A
:203340002B804C5F4E48C00C02816D3BFF8F6034FF34814A806B52FF34813048D03452812A
:20336000B56F2400C83081D08F6A0605600C056D06FA3B8F22806B702B8020813B0081D4B7
:203380006A2430489460B70064676A47FE6047FE6047FE4C014E4810220028000072268F54
:2033A0006030D22600B7661602002B8FD38F10020081704C184E4EFF2F70C0002DFF74062D
:2033C000FFFF43FF303200E2320600FF06FFFF43FF303200E2320600FF70C1FFD5FF20FF4E
:2033E000244E4E48202400674790743F3080206A56E4E520902F084E5C2300003F30802074
:203400006A56E4E520902F084E5C2300003F20903048E5209020002F084E5C2300004A0005
:20342000667060703F3048E520002F084E5C230000428F4C0C4E3B008F3080206A56E4E58C
:203440002090230800003080206A56E4E520902308000020903048E5209020002308000055
:20346000309048E52090230800004E2F419026804A0067310000420031FF0036003B008F3C
:20348000604A8F674E00670C008166360037040037070060538150B700D7632600C82B8027
:2034A000360070264E2F2F248034003504004A006F53004A00664E00670C00816F50B50011
:2034C000D7632400C853812B804A8F6A3400604A8F6E4E00683024244E481F478049804175
:2034E000902841812C41812E2280204A6632003A04600120530600019036000C0066594A9E
:203500006A360030206A56E4E520003C2308000060000C0066580C006D4230206A56E4E5ED
:2035200020003C23080000600C0066594A6A380030206A56E4E520003C600C0066580C0082
:203540006D4230206A56E4E520003C2308000052002200B2816E20B26F2260B2816E208142
:2035600020909220B26F22602081209092B2816F2281208120B06D20E53620B06F3022D2A2
:203580002000423A18304C184E481049812280269053004A006A76534A6750B300D763223B
:2035A00000C82B8060320033003307005260300048D19030D00022020020003048E5230842
:2035C00000003652003000B0006F300060300048320C006D72B2006F32003048D020003EF6
:2035E0003608304C184E481049814390268053004A006A76534A6750B700D7632600C82B35
:20360000806036003700370700524A8F673BFF8F36004A0066020000006030D00022020058
:2036200020003048E523080000323000D10052003000B0006F300060300048320C006D72E9
:20364000B2006F32003048D020003E3608304C184E481847814980280000228036000CFF55
:203660006620100200662000B0906F36FF330020100200670C0001006D600CFF66201002FF
:2036800000670C0001006E2000B0906F20363300580C006D4230206A56E4E520003C23087D
:2036A000000052002200B26F224A6B590020B0006F3000222081B0006F3200D2200042305E
:2036C000184C184E2F2F478022801000000200672000B0906F3200360460594A6A360030D2
:2036E000206A56E4E520003C2308000052002200B2816F2281D220004236183026264E2F66
:203700002F478022801000000200670C0077006F3200360460580C006F4230206A56E4E5EC
:2037200020003C2308000052002200B2816F2281D220004236183026264E2F2F2290268047
:203740001000000200660C00006D36006036003000484433004A006F23003D006023003DE4
:2037600000420036046030D00022020020003048E5230800003252003700003000B0006F97
:20378000300060300048320C006D723048D020003E36083026264E2F2F2290268010000090
:2037A000020067520030000C006D36003000484433004A006F23003D006023003D00420065
:2037C00030D00022020020003048E523080000323000B0006F300060300048320C006D7277
:2037E0003048D020003E360852003026264E4381208032000C106F3210930060534A67501F
:20380000B100D7632000C82B80603000310031070052304E439020807292006A2081B0002F
:203820006F72602000B06F206020004A6A56E4B0816F2081602000B06F206020004A6A56F0
:20384000E422223000704E30044E2F229026800C00006610000002006737FF0036002300CF
:203860003D0060520030D00022020020003048E523080000323001264E4810458047814988
:203880008F418F263048463830130000725220220020B26C42534A67500C00D7632400C85E
:2038A000602030002031002031070052304C1C4E4E00774A8F672080300072602080308F71
:2038C000208F4432304E2F268020904A0066229042003300003300003300003600264E2FAA
:2038E000228020904A0066249042003500003500001000000200673200603200300048446D
:2039000035004A006F25003D006025003D004E00673048E52000230800003BFF8F244E2FCE
:203920002F26804590420035000035000036003000350067004A006F0025003D0010000004
:2039400002006600100000020067004E420060000000006025003E0024264E20802B0090E0
:2039600070210030002B904E20803180003180002B003C902B003C9030004E20802B0090B4
:2039800070210030004E20802B009070210030004E48802200001200249053006A420030CF
:2039A00024002B90344A00675300300048D190D0020034E5200023000000130000120002C2
:2039C00000FF4C074E4023202E5F696562633536392F30312037323A354E22904A006720A7
:2039E0009022004A00674E529060300006FFE433003000676A4433FF0022003D603300001F
:203A000022003D33002300000720904A006733000002F86002F82B905300300048D190D04B
:203A2000020032E520230000003300001700001700FF5381663400350035070052816000B8
:203A40002400C86050B500D7624E02F83404600102F80C0066340061FF60010C006F3404E7
:203A6000538166340035003507005281600150B500D763002400C86000E520104E3424806D
:203A8000600000750069006B006E006F006B0069006800700070006F0070006C006D00705C
:203AA0000073006D007000716BFF6AFF48E026000002001700000000248032663000B0806F
:203AC000672090230000003B803000B080672090230000003B8002F83400538166340035CB
:203AE00000350700528160002400C86050B500D762326C00466700556B670C006F60200060
:203B00002B90308023000000600020002B9030802300000053816634003500350700528157
:203B20006050B500D76F2400C8602B80E520104E248060FF007600710071007200720072CF
:203B40000072007330000C006BC19035003400600061FD60FF2B804A8F6748958F6A3B8F77
:203B60003400D48F000730FF8000E506FFD40C006C02F860534A6A00070200170000000041
:203B800060FE720C016F0C046E72E46072E802001700830200FF4C0F4E4023202E5F696527
:203BA000636335312033302F36313A3935004E2F458F0C80654E00D3027F600C40654E00D5
:203BC000D302BF600C10654E00D402EF6042244E0000000000000000000000000000000049
:203BE0000000000000000000000000000000000000000000000000000000000000000000C5
:203C00000000000000000000000000000000000000000000000000000000000000000000A4
:203C2000000000000000000000000000000000000000000000000000000000000000000084
:203C4000000000000000000000000000000000000000000000000000000000000000000064
:00000001FF